:10000000BBC00000D5C00000D3C00000D1C00000BC
:10001000CFC00000CDC00000CBC00000C9C00000B0
:10002000C7C00000C5C00000C3C000000DC500006F
:10003000BFC00000BDC00000BBC00000B9C00000D0
:10004000B7C00000B5C00000B3C00000B1C00000E0
:10005000AFC00000ADC00000ABC0000007C2000090
:10006000A7C00000A5C00000A3C00000A1C0000000
:100070009FC000002A0355004E004F002D004B008A
:1000800056004D00200049006E007000750074009D
:1000900020004400650076006900630065000000F0
:1000A0001203530061007200640065006C006B0075
:1000B000610000000403090409023B00020100C0C2
:1000C00032090400000103010100092111010001AE
:1000D000224000070581030800050904010001030F
:1000E00001020009211101000122320007058303EA
:1000F0000800051201100100000008EB034D20016B
:10010000000102000105010906A101050719E02906
:10011000E715002501750195088102950175088193
:1001200001050819012905950575019102950175CB
:10013000039101150026FF000507190029FF950608
:1001400075088100C005010902A1010901A10095FE
:10015000037501050919012903150025018102957F
:1001600001750581017508950205010930093115F0
:1001700081257F8106C0C00011241FBECFEFD2E0D1
:10018000DEBFCDBF11E0A0E0B1E0E4ECF2E102C0DF
:1001900005900D92A032B107D9F722E0A0E2B1E0BC
:1001A00001C01D92A035B207E1F77FD00C94600921
:1001B00027CF9BB19063809589238BB90895FC016B
:1001C000E058FF4FA081B1816C93A081B1819D0166
:1001D0002F5F3F4F318320832E173F0721F4129664
:1001E0009C938E9311972FB7F894FC01EC57FF4F17
:1001F00080818F5F80832FBF0895DC01AE57BF4F92
:10020000ED91FC91119721911196FC93EE93AC0125
:1002100040585F4FE417F50711F48D939C933FB757
:10022000F894FC01EC57FF4F9081915090833FBFB1
:10023000822F0895CF93DF9384B7877F84BF0FB653
:10024000F894A89580916000886180936000109276
:1002500060000FBE90E080E80FB6F89480936100D4
:10026000909361000FBE84E085BD5F9A579AE9ECD8
:10027000F0E01082A8ECB0E01C92CAECD0E018824A
:100280008FEC90E09093CD008093CC0086E0888343
:1002900082E08C9388E980838AB180638AB98BB1CC
:1002A00080638BB9DF91CF91C0C3C4DF2FB7F894BF
:1002B00086E391E09093B7018093B6019093B901E2
:1002C0008093B8012FBF2FB7F8948EEB91E09093F5
:1002D0003F0280933E0290934102809340022FBFE1
:1002E00080E267DF789480E191E014D780E091E0CC
:1002F00011D7B0D5F8CF80E15CCF80E25ACFCF9351
:1003000080E191E0F4D6C82F80E091E0F0D69091A2
:10031000E20094609093E200CC2311F0811102C0BE
:1003200080E201C080E1CF9144CF80E191E0ACD583
:1003300080E091E0A9C580911E0190911F01009776
:1003400029F0019790931F0180931E0180910E0167
:1003500090910F01009729F0019790930F018093DE
:100360000E010895AF92BF92CF92DF92EF92FF926B
:100370000F931F93CF93DF9300D01F92CDB7DEB7BB
:100380007901FC0190818091000198132CC09FB7E6
:10039000F894809142029FBF8430C0F08EEB91E0D0
:1003A0002CDF89838EEB91E028DF8A838EEB91E04E
:1003B00024DF8B838EEB91E020DF89818093BB016A
:1003C0008A818093BC018B818093BD018091BB01A8
:1003D0009091BC01A091BD01F70180839183A2831C
:1003E00083E090E025C09FB7F8948091BA019FBF49
:1003F000883020F4A3E2B1E0F70112C083E2C82EF6
:1004000081E0D82E9BE2A92E91E0B92E86E391E0FF
:10041000F4DEF60181936F01AE16BF06B9F7EACF9D
:100420008D91819381E0AB32B807D1F788E090E0FD
:10043000F8019183808380E00F900F900F90DF91FF
:10044000CF911F910F91FF90EF90DF90CF90BF90D1
:10045000AF9008958051914041F4F901808180FF6F
:1004600002C080E201C080E0A4CE08951F920F92E6
:100470000FB60F9211242F933F934F935F936F9377
:100480007F938F939F93AF93BF93EF93FF9360916D
:10049000CE0080914702843011F580912101813096
:1004A00079F486E391E08BDE809120018F5F809369
:1004B00020018830A4F010922101109220010FC079
:1004C000823059F48EEB91E07ADE809120018F5FCB
:1004D0008093200184307CF702C060932101FF915A
:1004E000EF91BF91AF919F918F917F916F915F91AC
:1004F0004F913F912F910F900FBE0F901F90189525
:10050000292F332723303105C9F060F4213031051C
:1005100081F02230310509F044C08BE390E028EBF4
:1005200030E043C021323105E1F02232310549F19A
:1005300038C082E190E023EF30E037C09927813066
:10054000910549F028F0029761F5E4E7F0E005C075
:10055000E4EBF0E002C0E0EAF0E0849190E09F017B
:1005600024C06115710541F061307105D1F489E055
:1005700090E023EE30E019C089E090E02AEC30E012
:1005800014C06115710541F06130710551F482E3C9
:1005900090E025E431E009C080E490E025E031E01E
:1005A00004C080E090E020E030E0FA013183208355
:1005B0000895CF92DF92EF92FF920F931F93CF9304
:1005C000DF93EC018B017A01C4D1811133C0E114B6
:1005D000F10439F0F70180819181081B190BC80FD4
:1005E000D91FC12CD12C0115110519F18091E800FA
:1005F00085FD16C08091E8008E778093E8002AD4AC
:10060000E114F10449F0F70180819181C80ED91EEF
:10061000D182C08285E00EC09CD1882321F30AC01C
:1006200089918093F10001501109FFEFCF1ADF0A81
:10063000DACF80E0DF91CF911F910F91FF90EF9083
:10064000DF90CF90089520914E0230914F022617EF
:10065000370748F06115710539F42091E8002E77CD
:100660002093E80001C0B901FC0120E0611571058B
:1006700061F1809147028823D9F18530D9F18091C9
:10068000E80083FD39C08091E80082FD2BC0809195
:10069000E80080FFEBCF8091F20090E061157105DA
:1006A00051F08830910538F421912093F100615088
:1006B00071090196F3CF21E0089709F020E08091BD
:1006C000E8008E778093E800D1CF2111D2CF0AC005
:1006D00080914702882361F0853061F08091E800C5
:1006E00083FD0AC08091E80082FFF2CF80E0089588
:1006F00082E0089583E0089581E008956115710511
:1007000029F42091E8002B772093E800FC01611583
:10071000710521F180914702882341F1853041F133
:100720008091E80083FD20C08091E80082FFEFCF38
:100730008091F200882331F08091F1008193615023
:100740007109B1F78091E8008B778093E800DFCFE3
:1007500080914702882351F0853051F08091E80064
:1007600080FFF6CF80E0089581E0089582E008954B
:1007700083E0089520914E0230914F0226173707EB
:1007800048F06115710539F42091E8002E77209327
:10079000E80001C0B901FC0120E06115710579F1A3
:1007A00080914702882309F43DC0853009F43CC09C
:1007B0008091E80083FD3AC08091E80082FD2CC062
:1007C0008091E80080FFE9CF8091F20090E0611510
:1007D000710559F08830910540F424912093F1007F
:1007E0003196615071090196F2CF21E0089709F026
:1007F00020E08091E8008E778093E800CECF211131
:10080000CFCF0AC080914702882361F0853061F024
:100810008091E80083FD0AC08091E80082FFF2CF5A
:1008200080E0089582E0089583E0089581E00895CE
:10083000982F953068F59093E900981739F07091EA
:10084000EC002091ED005091F00003C0242F762F92
:1008500050E021FD02C09F5FECCF3091EB003E7F66
:100860003093EB003091ED003D7F3093ED003091FF
:10087000EB0031603093EB007093EC002093ED00BF
:100880005093F0002091EE0027FDE5CF80E0089521
:100890008F708093E90081E008950F931F93CF93A9
:1008A000DF93062FEC0110E0101771F19881911180
:1008B00003C01F5F2596F8CF2C81A981BA816B8177
:1008C000892F8F70853010F080E01FC0223010F427
:1008D00042E001C046E0E8E0F0E020E0EA17FB0774
:1008E00020F42F5FEE0FFF1FF9CF2295207F422BC0
:1008F0006295660F660F607C991F9927991F692B77
:1009000097DF8111D6CFE0CF81E0DF91CF911F91AA
:100910000F9108958091480287FF11C08091E800EF
:1009200082FD05C0809147028111F8CF11C08091EE
:10093000E8008B770BC080914702882349F08091B3
:10094000E80080FFF8CF8091E8008E778093E80080
:1009500008952091E4003091E50095E64091EC0087
:10096000842F817040FF23C08091E80080FD1DC06E
:1009700080914702882399F0853099F08091EB00AF
:1009800085FD11C04091E4005091E5002417350722
:1009900029F3915011F09A01E1CF84E0089582E0AB
:1009A000089583E0089581E0089580E008954091DE
:1009B000E80042FFDDCF089541D043D08091D800B8
:1009C0008F778093D8008091D80080688093D8007A
:1009D0008091D8008F7D8093D80084E089BD86E027
:1009E00089BD09B400FEFDCF109247021092430268
:1009F000109245021092440242E060E080E018DF6D
:100A00008091E1008E7F8093E1008091E20081601F
:100A10008093E2008091E20088608093E200809100
:100A2000E0008E7F8093E0000895E3E6F0E08081AF
:100A30008E7F808381E080934602BECF1092E200D9
:100A400008951092E10008951F920F920FB60F9231
:100A500011242F933F934F935F936F937F938F93C3
:100A60009F93AF93BF93EF93FF938091E10082FF39
:100A70000AC08091E20082FF06C08091E1008B7F76
:100A80008093E10058DC8091E10080FF17C08091E5
:100A9000E20080FF13C08091E2008E7F8093E2002D
:100AA0008091E20080618093E2008091D8008062B2
:100AB0008093D80019BC109247021FDC8091E1009E
:100AC00084FF2FC08091E20084FF2BC084E089BDA9
:100AD00086E089BD09B400FEFDCF8091D8008F7DEE
:100AE0008093D8008091E1008F7E8093E100809117
:100AF000E2008F7E8093E2008091E200816080932B
:100B0000E20080914302882311F084E007C08091C5
:100B1000E30087FD02C081E001C083E080934702CB
:100B2000EADB8091E10083FF22C08091E20083FF35
:100B30001EC08091E100877F8093E10082E0809376
:100B40004702109243028091E1008E7F8093E10082
:100B50008091E2008E7F8093E2008091E2008061CC
:100B60008093E20042E060E080E062DE72D1FF91BB
:100B7000EF91BF91AF919F918F917F916F915F9115
:100B80004F913F912F910F900FBE0F901F9018958E
:100B90001F93CF93DF93CDB7DEB7AA970FB6F89424
:100BA000DEBF0FBECDBFE8E4F2E08091F10081939B
:100BB00022E0E035F207C9F7B8DB8091E80083FF57
:100BC00030C18091480290914902953009F483C068
:100BD00030F49130A9F168F0933091F122C198304E
:100BE00009F4EFC0993009F4FBC0963009F019C13F
:100BF00094C0803821F0823809F013C108C0809178
:100C0000440290914502992389F082600FC080913F
:100C10004C028F70853008F004C18093E900809108
:100C2000EB0085FB882780F91092E9009091E8009D
:100C3000977F9093E8008093F1001092F100CCC070
:100C4000282F2D7F09F0EDC0882319F0823061F044
:100C5000E8C080914A02813009F0E3C0933009F086
:100C600080E0809345022EC080914A0281112AC003
:100C700080914C028F702FEF280F243008F0D1C0E4
:100C80008093E9002091EB0020FF1CC0933021F4F9
:100C90008091EB00806214C09091EB009061909382
:100CA000EB0021E030E0A90102C0440F551F8A95F6
:100CB000E2F74093EA001092EA008091EB0088602E
:100CC0008093EB001092E9008091E800877F809389
:100CD000E80020DEA6C08111A4C010914A021F774F
:100CE0008091E3008078812B8093E3008091E8007D
:100CF000877F8093E8000EDE8091E80080FFFCCFC4
:100D00008091E30080688093E300111102C082E0CB
:100D100001C083E08093470284C08058823008F08D
:100D200080C080914A0290914B028C3D53E0950720
:100D300071F583E08A838AE289834FB7F894DE01F4
:100D4000139620E03EE051E2E32FF0E0509357008D
:100D5000E49120FF03C0E295EF703F5FEF708E2FAC
:100D600090E0EA3010F0C79601C0C0968D939D9335
:100D70002F5F243149F74FBF8091E800877F809330
:100D8000E8006AE270E0CE0101965DDC14C060917B
:100D90004C0270914D02AE014F5F5F4FB1DBBC0161
:100DA000892B09F43EC09091E800977F9093E8006A
:100DB00089819A81DFDC8091E8008B778093E8005D
:100DC00030C0803871F58091E800877F8093E8001B
:100DD000809143028093F1008091E8008E7777CF75
:100DE00081111FC080914A0290914B02992702976E
:100DF000C4F48091E800877F8093E80080914A02E4
:100E00008093430287DD80914302811106C0809167
:100E1000E30087FD02C081E001C084E080934702C7
:100E20006EDA8091E80083FF0AC08091E800877F36
:100E30008093E8008091EB0080628093EB00AA969B
:100E40000FB6F894DEBF0FBECDBFDF91CF911F91DB
:100E500008950895CF9380914702882399F0C09117
:100E6000E900CF709091EC00892F817090FD80E8AF
:100E7000C82B1092E9008091E80083FD89DECF70D5
:100E8000C093E900CF9108956F927F928F929F92C5
:100E9000AF92BF92CF92DF92EF92FF920F931F9388
:100EA000CF93DF9300D01F92CDB7DEB77C01ADB6F4
:100EB000BEB68091E80083FF03C1F701808190E016
:100EC00020914C0230914D022817390709F0F8C0E3
:100ED00080914902833009F49AC030F4813071F076
:100EE000823009F4D1C0ECC08A3009F4B5C08B302F
:100EF00009F49EC0893009F0E3C04CC080914802DB
:100F0000813A09F0DDC08DB69EB61A8219828091B1
:100F10004A0210914B028B83F7018085482F50E0E5
:100F20008DB79EB7841B950B0FB6F8949EBF0FBE6E
:100F30008DBFEDB7FEB731966F0160E070E0CF0175
:100F4000B8D14FEF410F8E010F5F1F4F9601BE01C9
:100F50006D5F7F4FC70106DAF701868197810097A1
:100F600021F0408550E0B6019BD11092E9008091BC
:100F7000E800877F8093E8008B8181118093F100E6
:100F800069817A81C6015FDB8091E8008B7780936D
:100F9000E80037C080914802813209F091C08DB6D7
:100FA0009EB600914E0210914F0270904A026090DE
:100FB0004B028DB79EB7801B910B0FB6F8949EBF66
:100FC0000FBE8DBFEDB7FEB731966F018091E8007F
:100FD000877F8093E800B801CF0190DB8091E80023
:100FE0008E778093E80021E0711001C020E030E0AE
:100FF000021B130B2C0D3D1D4FEF460D672DC70136
:1010000029DA0FB6F8949EBE0FBE8DBE59C08091EE
:101010004802813A09F054C08091E800877F8093AC
:10102000E8008091E80080FFFCCFF701818540C097
:1010300080914802813209F043C08091E800877FA7
:101040008093E80067DC90914A0281E0911101C031
:1010500080E0F701818734C080914802813281F5B8
:101060008091E800877F8093E80054DC80914A02F9
:1010700090914B02882736E0969587953A95E1F74F
:10108000F701958784871CC080914802813AC1F49A
:101090008091E800877F8093E8008091E80080FFDE
:1010A000FCCFF701848595859695879596958795CC
:1010B0008093F1008091E8008E778093E8002ADC2D
:1010C0000FB6F894BEBE0FBEADBE0F900F900F903E
:1010D000DF91CF911F910F91FF90EF90DF90CF9014
:1010E000BF90AF909F908F907F906F900895FC017C
:1010F000399627E0DF011D922A95E9F721E0FC01EE
:10110000218724EF31E03587248723E0248361E0C1
:101110000196C3CB5F926F927F928F929F92AF9214
:10112000BF92CF92DF92EF92FF920F931F93CF93D4
:10113000DF9300D01F92CDB7DEB77C01ADB6BEB64F
:1011400080914702843009F086C08091E40090913C
:10115000E500F701228533852817390709F47BC09C
:1011600081818F708093E9008091E80085FF73C0D2
:101170008DB69EB6408550E08DB79EB7841B950B0B
:101180000FB6F8949EBF0FBE8DBFEDB7FEB7319678
:101190006F011B821A82198260E070E0CF0189D052
:1011A0008E010F5F1F4F960140E0BE016D5F7F4FC4
:1011B000C701D8D8582EF70184859585892B29F049
:1011C00011E086859785892B09F010E0F70166808C
:1011D00077806114710481F049815A81B301C6019D
:1011E00052D001E0892B09F400E0F701408550E07E
:1011F000B601C30155D001C000E089819A81892BD5
:10120000F1F0511004C0011102C010FF18C0F70125
:10121000848595859787868781818F708093E90083
:101220008B8181118093F10069817A8140E050E0E7
:10123000C601BFD98091E8008E778093E800809145
:10124000E4009091E500F701938782870FB6F89448
:101250009EBE0FBE8DBE0FB6F894BEBE0FBEADBE15
:101260000F900F900F90DF91CF911F910F91FF90F2
:10127000EF90DF90CF90BF90AF909F908F907F9036
:101280006F905F900895FB01DC0104C08D91019087
:10129000801921F441505040C8F7881B990B0895DC
:1012A000FB01DC0102C001900D9241505040D8F783
:1012B0000895DC0101C06D9341505040E0F708955E
:0412C000F894FFCFD0
:1012C4000183080000012B0103000000000000005E
:1012D4000081080000012E01080000000000000049
:00000001FF
